{
  "contractName": "DAO",
  "abi": [
    {
      "inputs": [
        {
          "internalType": "uint256",
          "name": "contributionTime",
          "type": "uint256"
        },
        {
          "internalType": "uint256",
          "name": "_voteTime",
          "type": "uint256"
        },
        {
          "internalType": "uint256",
          "name": "_quorum",
          "type": "uint256"
        },
        {
          "internalType": "address",
          "name": "_admin",
          "type": "address"
        }
      ],
      "stateMutability": "nonpayable",
      "type": "constructor"
    },
    {
      "stateMutability": "payable",
      "type": "fallback",
      "payable": true
    },
    {
      "inputs": [],
      "name": "admin",
      "outputs": [
        {
          "internalType": "address",
          "name": "",
          "type": "address"
        }
      ],
      "stateMutability": "view",
      "type": "function",
      "constant": true
    },
    {
      "inputs": [],
      "name": "availableFunds",
      "outputs": [
        {
          "internalType": "uint256",
          "name": "",
          "type": "uint256"
        }
      ],
      "stateMutability": "view",
      "type": "function",
      "constant": true
    },
    {
      "inputs": [],
      "name": "contributionEnd",
      "outputs": [
        {
          "internalType": "uint256",
          "name": "",
          "type": "uint256"
        }
      ],
      "stateMutability": "view",
      "type": "function",
      "constant": true
    },
    {
      "inputs": [
        {
          "internalType": "address",
          "name": "",
          "type": "address"
        }
      ],
      "name": "investors",
      "outputs": [
        {
          "internalType": "bool",
          "name": "",
          "type": "bool"
        }
      ],
      "stateMutability": "view",
      "type": "function",
      "constant": true
    },
    {
      "inputs": [],
      "name": "nextProposalId",
      "outputs": [
        {
          "internalType": "uint256",
          "name": "",
          "type": "uint256"
        }
      ],
      "stateMutability": "view",
      "type": "function",
      "constant": true
    },
    {
      "inputs": [
        {
          "internalType": "uint256",
          "name": "",
          "type": "uint256"
        }
      ],
      "name": "proposals",
      "outputs": [
        {
          "internalType": "uint256",
          "name": "id",
          "type": "uint256"
        },
        {
          "internalType": "string",
          "name": "name",
          "type": "string"
        },
        {
          "internalType": "uint256",
          "name": "amount",
          "type": "uint256"
        },
        {
          "internalType": "address payable",
          "name": "recipient",
          "type": "address"
        },
        {
          "internalType": "uint256",
          "name": "votes",
          "type": "uint256"
        },
        {
          "internalType": "uint256",
          "name": "end",
          "type": "uint256"
        },
        {
          "internalType": "bool",
          "name": "executed",
          "type": "bool"
        }
      ],
      "stateMutability": "view",
      "type": "function",
      "constant": true
    },
    {
      "inputs": [],
      "name": "quorum",
      "outputs": [
        {
          "internalType": "uint256",
          "name": "",
          "type": "uint256"
        }
      ],
      "stateMutability": "view",
      "type": "function",
      "constant": true
    },
    {
      "inputs": [
        {
          "internalType": "address",
          "name": "",
          "type": "address"
        }
      ],
      "name": "shares",
      "outputs": [
        {
          "internalType": "uint256",
          "name": "",
          "type": "uint256"
        }
      ],
      "stateMutability": "view",
      "type": "function",
      "constant": true
    },
    {
      "inputs": [],
      "name": "totalShares",
      "outputs": [
        {
          "internalType": "uint256",
          "name": "",
          "type": "uint256"
        }
      ],
      "stateMutability": "view",
      "type": "function",
      "constant": true
    },
    {
      "inputs": [],
      "name": "voteTime",
      "outputs": [
        {
          "internalType": "uint256",
          "name": "",
          "type": "uint256"
        }
      ],
      "stateMutability": "view",
      "type": "function",
      "constant": true
    },
    {
      "inputs": [
        {
          "internalType": "address",
          "name": "",
          "type": "address"
        },
        {
          "internalType": "uint256",
          "name": "",
          "type": "uint256"
        }
      ],
      "name": "votes",
      "outputs": [
        {
          "internalType": "bool",
          "name": "",
          "type": "bool"
        }
      ],
      "stateMutability": "view",
      "type": "function",
      "constant": true
    },
    {
      "stateMutability": "payable",
      "type": "receive",
      "payable": true
    },
    {
      "inputs": [],
      "name": "contribute",
      "outputs": [],
      "stateMutability": "payable",
      "type": "function",
      "payable": true
    },
    {
      "inputs": [
        {
          "internalType": "uint256",
          "name": "amount",
          "type": "uint256"
        }
      ],
      "name": "redeemShare",
      "outputs": [],
      "stateMutability": "nonpayable",
      "type": "function"
    },
    {
      "inputs": [
        {
          "internalType": "uint256",
          "name": "amount",
          "type": "uint256"
        },
        {
          "internalType": "address",
          "name": "to",
          "type": "address"
        }
      ],
      "name": "transferShare",
      "outputs": [],
      "stateMutability": "nonpayable",
      "type": "function"
    },
    {
      "inputs": [
        {
          "internalType": "string",
          "name": "name",
          "type": "string"
        },
        {
          "internalType": "uint256",
          "name": "amount",
          "type": "uint256"
        },
        {
          "internalType": "address payable",
          "name": "recipient",
          "type": "address"
        }
      ],
      "name": "createProposal",
      "outputs": [],
      "stateMutability": "nonpayable",
      "type": "function"
    },
    {
      "inputs": [
        {
          "internalType": "uint256",
          "name": "proposalId",
          "type": "uint256"
        }
      ],
      "name": "vote",
      "outputs": [],
      "stateMutability": "nonpayable",
      "type": "function"
    },
    {
      "inputs": [
        {
          "internalType": "uint256",
          "name": "proposalId",
          "type": "uint256"
        }
      ],
      "name": "executeProposal",
      "outputs": [],
      "stateMutability": "nonpayable",
      "type": "function"
    },
    {
      "inputs": [
        {
          "internalType": "uint256",
          "name": "amount",
          "type": "uint256"
        },
        {
          "internalType": "address payable",
          "name": "to",
          "type": "address"
        }
      ],
      "name": "withdrawEther",
      "outputs": [],
      "stateMutability": "nonpayable",
      "type": "function"
    }
  ],
  "bytecode": "0x608060405234801561001057600080fd5b5060405161125738038061125783398101604081905261002f9161009f565b60008211801561003f5750606482105b6100645760405162461bcd60e51b815260040161005b906100ec565b60405180910390fd5b61006e8442610121565b600a55600392909255600455600580546001600160a01b0319166001600160a01b0390921691909117905550610145565b600080600080608085870312156100b4578384fd5b845160208601516040870151606088015192965090945092506001600160a01b03811681146100e1578182fd5b939692955090935050565b6020808252818101527f71756f72756d206d757374206265206265747765656e203020616e6420313030604082015260600190565b6000821982111561014057634e487b7160e01b81526011600452602481fd5b500190565b611103806101546000396000f3fe60806040526004361061010d5760003560e01c80636f7bc9be11610095578063ce56c45411610064578063ce56c454146102de578063ce7c2ac2146102fe578063d151b5161461031e578063d7bb99ba14610333578063f851a4401461033b5761012b565b80636f7bc9be1461025c578063868643df146102895780639f2524ee146102a9578063bcf93dd6146102c95761012b565b80631703a018116100dc5780631703a018146101db5780632ab09d14146101fd5780633a98ef391461021257806346fcff4c146102275780636ac1e01f1461023c5761012b565b80630121b93f1461013d578063013cf08b1461015f578063039383e61461019b5780630d61b519146101bb5761012b565b3661012b5734600960008282546101249190610fc5565b9091555050005b34600960008282546101249190610fc5565b34801561014957600080fd5b5061015d610158366004610c37565b61035d565b005b34801561016b57600080fd5b5061017f61017a366004610c37565b610450565b6040516101929796959493929190610f34565b60405180910390f35b3480156101a757600080fd5b5061015d6101b6366004610c4f565b610521565b3480156101c757600080fd5b5061015d6101d6366004610c37565b6105c6565b3480156101e757600080fd5b506101f06106b4565b6040516101929190610f2b565b34801561020957600080fd5b506101f06106ba565b34801561021e57600080fd5b506101f06106c0565b34801561023357600080fd5b506101f06106c6565b34801561024857600080fd5b5061015d610257366004610b7c565b6106cc565b34801561026857600080fd5b5061027c610277366004610b2e565b61082e565b6040516101929190610ca5565b34801561029557600080fd5b5061015d6102a4366004610c37565b610843565b3480156102b557600080fd5b5061027c6102c4366004610b51565b610902565b3480156102d557600080fd5b506101f0610922565b3480156102ea57600080fd5b5061015d6102f9366004610c4f565b610928565b34801561030a57600080fd5b506101f0610319366004610b2e565b61095c565b34801561032a57600080fd5b506101f061096e565b61015d610974565b34801561034757600080fd5b50610350610a02565b6040516101929190610c91565b3360009081526006602052604090205460ff16151560011461039a5760405162461bcd60e51b815260040161039190610e53565b60405180910390fd5b600081815260208181526040808320338452600183528184208585529092529091205460ff16156103dd5760405162461bcd60e51b815260040161039190610d27565b806005015442106104005760405162461bcd60e51b815260040161039190610ebf565b3360008181526001602081815260408084208785528252808420805460ff191690931790925592825260079092529081205460048301805491929091610447908490610fc5565b90915550505050565b6000602081905290815260409020805460018201805491929161047290611033565b80601f016020809104026020016040519081016040528092919081815260200182805461049e90611033565b80156104eb5780601f106104c0576101008083540402835291602001916104eb565b820191906000526020600020905b8154815290600101906020018083116104ce57829003601f168201915b5050506002840154600385015460048601546005870154600690970154959692956001600160a01b039092169450925060ff1687565b336000908152600760205260409020548211156105505760405162461bcd60e51b815260040161039190610cb0565b336000908152600760205260408120805484929061056f90849061101c565b90915550506001600160a01b0381166000908152600760205260408120805484929061059c908490610fc5565b90915550506001600160a01b03166000908152600660205260409020805460ff1916600117905550565b6005546001600160a01b031633146105f05760405162461bcd60e51b815260040161039190610d03565b600081815260208190526040902060058101544210156106225760405162461bcd60e51b815260040161039190610e7b565b600681015460ff16156106475760405162461bcd60e51b815260040161039190610e09565b6004546008548260040154606461065e9190610ffd565b6106689190610fdd565b10156106865760405162461bcd60e51b815260040161039190610d71565b600281015460038201546106a391906001600160a01b0316610a11565b600601805460ff1916600117905550565b60045481565b60025481565b60085481565b60095481565b3360009081526006602052604090205460ff1615156001146107005760405162461bcd60e51b815260040161039190610e53565b8160095410156107225760405162461bcd60e51b815260040161039190610cdb565b6040518060e001604052806002548152602001848152602001838152602001826001600160a01b0316815260200160008152602001600354426107659190610fc5565b81526000602091820181905260025481528082526040902082518155828201518051919261079b92600185019290910190610a85565b506040820151600282015560608201516003820180546001600160a01b0319166001600160a01b039092169190911790556080820151600482015560a0820151600582015560c0909101516006909101805460ff19169115159190911790556009805483919060009061080f90849061101c565b9091555050600280549060006108248361106e565b9190505550505050565b60066020526000908152604090205460ff1681565b336000908152600760205260409020548111156108725760405162461bcd60e51b815260040161039190610cb0565b8060095410156108945760405162461bcd60e51b815260040161039190610ef4565b33600090815260076020526040812080548392906108b390849061101c565b9250508190555080600960008282546108cc919061101c565b9091555050604051339082156108fc029083906000818181858888f193505050501580156108fe573d6000803e3d6000fd5b5050565b600160209081526000928352604080842090915290825290205460ff1681565b60035481565b6005546001600160a01b031633146109525760405162461bcd60e51b815260040161039190610d03565b6108fe8282610a11565b60076020526000908152604090205481565b600a5481565b600a5442106109955760405162461bcd60e51b815260040161039190610dc0565b336000908152600660209081526040808320805460ff191660011790556007909152812080543492906109c9908490610fc5565b9250508190555034600860008282546109e29190610fc5565b9250508190555034600960008282546109fb9190610fc5565b9091555050565b6005546001600160a01b031681565b600954821115610a335760405162461bcd60e51b815260040161039190610ef4565b8160096000828254610a45919061101c565b90915550506040516001600160a01b0382169083156108fc029084906000818181858888f19350505050158015610a80573d6000803e3d6000fd5b505050565b828054610a9190611033565b90600052602060002090601f016020900481019282610ab35760008555610af9565b82601f10610acc57805160ff1916838001178555610af9565b82800160010185558215610af9579182015b82811115610af9578251825591602001919060010190610ade565b50610b05929150610b09565b5090565b5b80821115610b055760008155600101610b0a565b8035610b29816110b5565b919050565b600060208284031215610b3f578081fd5b8135610b4a816110b5565b9392505050565b60008060408385031215610b63578081fd5b8235610b6e816110b5565b946020939093013593505050565b600080600060608486031215610b90578081fd5b833567ffffffffffffffff80821115610ba7578283fd5b818601915086601f830112610bba578283fd5b8135602082821115610bce57610bce61109f565b604051601f8301601f1916810182018481118282101715610bf157610bf161109f565b60405282815284830182018a1015610c07578586fd5b828286018383013791820181018590529095508601359350610c2e91505060408501610b1e565b90509250925092565b600060208284031215610c48578081fd5b5035919050565b60008060408385031215610c61578182fd5b823591506020830135610c73816110b5565b809150509250929050565b6001600160a01b03169052565b15159052565b6001600160a01b0391909116815260200190565b901515815260200190565b6020808252601190820152706e6f7420656e6f7567682073686172657360781b604082015260600190565b6020808252600e908201526d616d6f756e7420746f6f2062696760901b604082015260600190565b6020808252600a908201526937b7363c9030b236b4b760b11b604082015260600190565b6020808252602a908201527f696e766573746f722063616e206f6e6c7920766f7465206f6e636520666f722060408201526918481c1c9bdc1bdcd85b60b21b606082015260800190565b6020808252602f908201527f63616e6e6f7420657865637574652070726f706f73616c207769746820766f7460408201526e65732062656c6f772071756f72756d60881b606082015260800190565b60208082526029908201527f63616e6e6f7420636f6e7472696275746520616674657220636f6e74726962756040820152681d1a5bdb9cc8195b9960ba1b606082015260800190565b6020808252602a908201527f63616e6e6f74206578656375746520612070726f706f73616c20616c726561646040820152691e48195e1958dd5d195960b21b606082015260800190565b6020808252600e908201526d6f6e6c7920696e766573746f727360901b604082015260600190565b60208082526024908201527f63616e6e6f74206578656375746520612070726f706f73616c206265666f726560408201526308195b9960e21b606082015260800190565b6020808252818101527f63616e206f6e6c7920766f746520756e74696c2070726f706f73616c20656e64604082015260600190565b6020808252601a908201527f6e6f7420656e6f75676820617661696c61626c652066756e6473000000000000604082015260600190565b90815260200190565b6000888252602060e08184015288518060e0850152825b81811015610f68578a810183015185820161010001528201610f4b565b81811115610f7a578361010083870101525b5060408401899052601f01601f19168301610100019150610fa090506060830187610c7e565b8460808301528360a0830152610fb960c0830184610c8b565b98975050505050505050565b60008219821115610fd857610fd8611089565b500190565b600082610ff857634e487b7160e01b81526012600452602481fd5b500490565b600081600019048311821515161561101757611017611089565b500290565b60008282101561102e5761102e611089565b500390565b60028104600182168061104757607f821691505b6020821081141561106857634e487b7160e01b600052602260045260246000fd5b50919050565b600060001982141561108257611082611089565b5060010190565b634e487b7160e01b600052601160045260246000fd5b634e487b7160e01b600052604160045260246000fd5b6001600160a01b03811681146110ca57600080fd5b5056fea2646970667358221220093e20f6101001dfaa830bb965314f900c953de9d922f650b275079181d7f4b964736f6c63430008000033",
  "immutableReferences": {},
  "source": "// SPDX-License-Identifier: MIT \r\npragma solidity ^0.8.0;\r\n\r\n\r\ncontract DAO {\r\n    struct Proposal {\r\n        uint id;\r\n        string name;\r\n        uint amount;\r\n        address payable recipient;\r\n        uint votes;\r\n        uint end;\r\n        bool executed;\r\n    }\r\n    mapping(uint => Proposal) public proposals;\r\n    mapping(address => mapping(uint => bool)) public votes;\r\n    uint public nextProposalId;\r\n    uint public voteTime;\r\n    uint public quorum;\r\n    address public admin;\r\n\r\n    mapping(address => bool) public investors;\r\n    mapping(address => uint) public shares;\r\n    uint public totalShares;\r\n    uint public availableFunds;\r\n    uint public contributionEnd;\r\n\r\n    constructor(\r\n        uint contributionTime, \r\n        uint _voteTime,\r\n        uint _quorum,\r\n        address _admin) {\r\n            require(_quorum > 0 && _quorum < 100, 'quorum must be between 0 and 100');\r\n            contributionEnd = block.timestamp + contributionTime;\r\n            voteTime = _voteTime;\r\n            quorum = _quorum;\r\n            admin = _admin;\r\n    }\r\n\r\n    function contribute() payable external {\r\n        require(block.timestamp < contributionEnd, 'cannot contribute after contributions end');\r\n        investors[msg.sender] = true;\r\n        shares[msg.sender] += msg.value;\r\n        totalShares += msg.value;\r\n        availableFunds += msg.value;\r\n    }\r\n\r\n    function redeemShare(uint amount) external {\r\n        require(shares[msg.sender] >= amount, 'not enough shares');\r\n        require(availableFunds >= amount, 'not enough available funds');\r\n        shares[msg.sender] -= amount;\r\n        availableFunds -= amount;\r\n        payable(msg.sender).transfer(amount);\r\n    }\r\n\r\n    function transferShare(uint amount, address to) external {\r\n        require(shares[msg.sender] >= amount, 'not enough shares');\r\n        shares[msg.sender] -= amount;\r\n        shares[to] += amount;\r\n        investors[to] = true;\r\n    }\r\n\r\n    function createProposal(\r\n        string memory name,\r\n        uint amount,\r\n        address payable recipient)\r\n        external onlyInvestor() {\r\n            require(availableFunds >= amount, 'amount too big');\r\n            proposals[nextProposalId] = Proposal(\r\n                nextProposalId,\r\n                name,\r\n                amount,\r\n                recipient,\r\n                0,\r\n                block.timestamp + voteTime,\r\n                false\r\n            );\r\n        availableFunds -= amount;\r\n        nextProposalId++;\r\n    }\r\n\r\n    function vote(uint proposalId) external onlyInvestor() {\r\n        Proposal storage proposal = proposals[proposalId];\r\n        require(votes[msg.sender][proposalId] == false, 'investor can only vote once for a proposal');\r\n        require(block.timestamp < proposal.end, 'can only vote until proposal end');\r\n        votes[msg.sender][proposalId] = true;\r\n        proposal.votes += shares[msg.sender];\r\n    }\r\n\r\n    modifier onlyInvestor() {\r\n        require(investors[msg.sender] == true, 'only investors');\r\n        _;\r\n    }\r\n\r\n    function executeProposal(uint proposalId) external onlyAdmin() {\r\n        Proposal storage proposal = proposals[proposalId];\r\n        require(block.timestamp >= proposal.end, 'cannot execute a proposal before end');\r\n        require(proposal.executed == false, 'cannot execute a proposal already executed');\r\n        require((proposal.votes * 100) / totalShares >= quorum, 'cannot execute proposal with votes below quorum');\r\n        _transferEther(proposal.amount, proposal.recipient);\r\n        proposal.executed = true;\r\n    }\r\n\r\n    function withdrawEther(uint amount, address payable to) external onlyAdmin() {\r\n        _transferEther(amount, to);\r\n    }\r\n\r\n    fallback() payable external {\r\n        availableFunds += msg.value;\r\n    }\r\n    \r\n    receive() external payable {\r\n        availableFunds += msg.value;\r\n    }\r\n\r\n    function _transferEther(uint amount, address payable to) internal {\r\n        require(amount <= availableFunds, 'not enough available funds');\r\n        availableFunds -= amount;\r\n        to.transfer(amount);\r\n    }\r\n\r\n    modifier onlyAdmin() {\r\n        require(msg.sender == admin, 'only admin');\r\n        _;\r\n    }\r\n    \r\n}",
  "sourcePath": "C:\\Users\\cassi\\Documents\\DApps\\DAO\\contracts\\DAO.sol",
  "compiler": {
    "name": "solc",
    "version": "0.8.0+commit.c7dfd78e.Emscripten.clang"
  },
  "schemaVersion": "3.4.16",
  "updatedAt": "2023-11-19T21:50:57.456Z",
  "networkType": "ethereum",
  "devdoc": {
    "kind": "dev",
    "methods": {},
    "version": 1
  },
  "userdoc": {
    "kind": "user",
    "methods": {},
    "version": 1
  }
}